:020000040800F2
:1000000000100020992800081107000819070008AF
:1000100000000000000000000000000000000000E0
:1000200000000000000000000000000021070008A0
:1000300000000000000000002B0700083507000842
:10004000E928000800000000E9280008E928000865
:10005000E928000843070008E9280008E928000803
:1000600000000000E9280008E9280008E928000845
:10007000E9280008E9280008E92800080000000035
:10008000E92800080000000000000000E92800083E
:1000900000000000E928000855070008E9280008CA
:1000A00000000000E9280008000000006D070008BB
:1000B0000000000000000000000000000000000040
:1000C000002934D00123002210B488422CD301240B
:1000D0002407A14204D2814202D209011B01F8E7A0
:1000E000E400A14204D2814202D249005B00F8E759
:1000F000884201D3401A1A434C08A04202D3001B85
:100100005C0822438C08A04202D3001B9C082243B7
:10011000CC08A04202D3001BDC082243002803D0F5
:100120001B0901D00909E3E7100010BC704701B5B5
:10013000002000F00BF802BD0029F8D003B5FFF74E
:10014000C1FF0EBC4243891A1847C0467047C046DB
:1001500010B5064C2378002B07D1054B002B02D09D
:10016000044800E000BF0123237010BD0C000020F4
:100170000000000044290008044B10B5002B03D0F8
:100180000349044800E000BF10BDC0460000000065
:10019000100000204429000880B582B000AF0200A2
:1001A000FB1D1A70C046064BDB6980221340FAD053
:1001B000FB1D1A78024B1A85C046BD4602B080BDB1
:1001C0000038014080B582B000AF0200BB1D1A802C
:1001D000BB1D1B88022B00D0A5E0554B1B690222DA
:1001E00013403DD0534B5B6A9AB2534B1A80514B2C
:1001F00000225A62504B1B889BB2322B00D992E0EE
:100200004D4B1B889BB22D2B00D88CE04B4B1B8891
:100210009BB21A00484B1B889BB21900474B1B88A6
:100220009BB2CB1A9A4206DD454B3E221A70454BD3
:1002300001221A700DE0434B1B78DBB21A00404BD1
:10024000202199543F4B1B78DBB20133DAB23D4B8E
:100250001A703D4B80221A703C4B00221A7062E0EB
:10026000344B5B6A9AB2354B1A80344B1B889BB275
:100270000A2B0ED8314B1B889BB2052B09D9324B68
:100280001B78DAB2314B1B78DBB21343DAB22F4B57
:100290001A702D4B1B78DBB25B08DAB22A4B1A704E
:1002A000294B1B78DBB2002B37D1264B1B78DBB2F6
:1002B0001A00234B20219954244B1B78DBB21B09D5
:1002C000DBB219001F4B1B78DBB20133DAB21D4BD6
:1002D000101C18701E4B595C194B99541B4B1B7802
:1002E000DBB21A000F231340164A1278D2B2013241
:1002F000D1B2144A081C1070154AD25C104B5A54E3
:10030000104B1B78DBB20133DAB20E4B1A700E4B76
:1003100080221A700D4B00221A70064BDA68054BCA
:1003200001210A43DA60C046BD4602B080BDC04626
:100330000004004800480140280000202A00002056
:10034000300000202E0000202D0000202C00002076
:100350009029000880B582B000AF78607B681B6888
:10036000164A934226D1164B1B78DBB2002B1BD0CA
:10037000134B1B78DBB21A00124B20219954104BFF
:100380001B78DBB20133DAB20D4B111C19700D4B27
:100390003C2199540A4B1B78DBB20133DAB2084B8B
:1003A0001A70094B01221A70044BDA68034B0121C1
:1003B0008A43DA60C046BD4602B080BD00480140B5
:1003C0002E000020300000202F00002080B582B0D9
:1003D00000AF01F0D9FE00F049F800F0AFF800F0EE
:1003E0000FF902F009FA1B4B180000F01BFA1A492A
:1003F0001A4B1322180000F03DFC194B1B78DBB29E
:10040000002BFAD0FB1D00221A7012E0FB1D1B7896
:10041000144AD35CDBB25BB21800FFF7BDFEFB1DD4
:100420001B78104A0021D154FB1D1A78FB1D0132A4
:100430001A700D4B1B78DBB2FA1D12789A42E5D385
:100440000D20FFF7A9FE0A20FFF7A6FE044B0022AD
:100450001A70D2E7CC0000205C2900084800002078
:100460002F000020300000202E00002090B595B015
:1004700000AF20243B19180030231A00002102F09D
:1004800034FA1023FB18180010231A00002102F080
:100490002CFA3B00180010231A00002102F025FA64
:1004A00021007B1802221A607B180122DA607B1877
:1004B00010221A617B1802221A627B1800225A62EB
:1004C0007B18A02292039A627B180022DA627B18C2
:1004D000180001F01FF9031E01D000F028F81021C8
:1004E0007B1807221A607B1802225A607B180022B0
:1004F0009A607B180022DA607B180121180001F055
:1005000023FC031E01D000F012F83B0001221A6008
:100510003B0000229A603B00180001F067FD031EBB
:1005200001D000F004F8C046BD4615B090BD80B5BE
:1005300000AF72B6C046C046FDE7000090B589B076
:1005400000AF0C243B19180014231A00002102F0FC
:10055000CCF9284B5A69274B802189020A435A61FA
:10056000244B5A6980239B021340BB60BB68214B1C
:100570005A69204B8021C9020A435A611D4B5A69AE
:100580008023DB0213407B607B689023DB05002225
:100590008021180001F0CCFF3B1980221A603B1922
:1005A00001225A603B1900229A603B190022DA604E
:1005B0003A199023DB051100180001F049FE3B19A0
:1005C00002221A603B190C4A5A603B1900229A60B9
:1005D0003B190A4A1900100001F03AFE00220021DE
:1005E000052002F0D1F8052002F0E3F8C046BD4630
:1005F00009B090BD00100240000031100004004816
:1006000080B500AF144B154A1A60134B144A5A6058
:10061000114B00229A60104B0022DA600E4B002230
:100620001A610D4B0C225A610B4B00229A610A4B46
:100630000022DA61084B00221A62074B00225A623C
:10064000054B180000F0C2FA031E01D0FFF76FFF40
:10065000C046BD4680BDC04648000020003801406D
:1006600040420F0090B58BB000AF786014243B1966
:10067000180014231A00002102F037F97B681B6868
:10068000214A93423BD1214B9A69204B8021C901D9
:100690000A439A611D4B9A698023DB0113403B6139
:1006A0003B691A4B5A69194B802189020A435A61E6
:1006B000164B5A6980239B021340FB60FB683B1971
:1006C000C022D2001A6021007B1802225A607B18D7
:1006D00000229A607B180322DA607B1801221A61DB
:1006E0007A189023DB051100180001F0B1FD0022FB
:1006F00000211B2002F048F81B2002F05AF8C046E7
:10070000BD460BB090BDC04600380140001002400D
:1007100080B500AFC046FDE780B500AFC046FDE73D
:1007200080B500AFC046BD4680BD80B500AFC046B5
:10073000BD4680BD80B500AF01F06EFDC046BD4630
:1007400080BD80B500AF022001F010FFC046BD465D
:1007500080BD000080B500AF034B180000F084F8A6
:10076000C046BD4680BDC046CC00002080B500AF6D
:10077000034B180000F0ECFAC046BD4680BDC046F1
:100780004800002080B582B000AF0F4B9A690E4B35
:1007900001210A439A610C4B9B69012213407B6043
:1007A0007B68094BDA69084B802149050A43DA6105
:1007B000054BDA6980235B0513403B603B68C0460C
:1007C000BD4602B080BDC0460010024080B582B078
:1007D00000AF78607B68002B01D101231EE07B68AD
:1007E0003D229B5CDBB2002B07D17B683C220021C1
:1007F00099547B68180002F027F87B683D2202219B
:1008000099547B681A687B6804331900100000F063
:1008100061F97B683D220121995400231800BD46EF
:1008200002B080BD80B584B000AF78607B681B6883
:10083000DA687B681B6801210A43DA607B681B6801
:100840009B6807221340FB60FB68062B07D07B6880
:100850001B681A687B681B6801210A431A60002321
:100860001800BD4604B080BD80B582B000AF78608E
:100870007B681B681B6902221340022B24D17B6812
:100880001B68DB6802221340022B1DD17B681B68AA
:10089000032252421A617B6801221A777B681B6827
:1008A0009B690322134004D07B68180000F0FAF81B
:1008B00007E07B68180000F0EDF87B68180000F096
:1008C000F9F87B6800221A777B681B681B69042291
:1008D0001340042B25D17B681B68DB68042213407E
:1008E000042B1ED17B681B68052252421A617B686B
:1008F00002221A777B681B689A69C0239B00134009
:1009000004D07B68180000F0CDF807E07B68180081
:1009100000F0C0F87B68180000F0CCF87B6800227B
:100920001A777B681B681B6908221340082B24D1A7
:100930007B681B68DB6808221340082B1DD17B688D
:100940001B68092252421A617B6804221A777B686D
:100950001B68DB690322134004D07B68180000F099
:10096000A1F807E07B68180000F094F87B68180095
:1009700000F0A0F87B6800221A777B681B681B696F
:1009800010221340102B25D17B681B68DB681022D6
:100990001340102B1ED17B681B68112252421A6132
:1009A0007B6808221A777B681B68DA69C0239B0082
:1009B000134004D07B68180000F074F807E07B68EF
:1009C000180000F067F87B68180000F073F87B6887
:1009D00000221A777B681B681B6901221340012BD8
:1009E0000FD17B681B68DB6801221340012B08D103
:1009F0007B681B68022252421A617B681800FFF76D
:100A0000A9FC7B681B681B6980221340802B0FD1D7
:100A10007B681B68DB6880221340802B08D17B68D1
:100A20001B68812252421A617B68180000F0C6F8E8
:100A30007B681B681B6940221340402B0FD17B68E9
:100A40001B68DB6840221340402B08D17B681B6881
:100A5000412252421A617B68180000F033F87B682B
:100A60001B681B6920221340202B0FD17B681B6859
:100A7000DB6820221340202B08D17B681B682122D1
:100A800052421A617B68180000F090F8C046BD46DB
:100A900002B080BD80B582B000AF7860C046BD4670
:100AA00002B080BD80B582B000AF7860C046BD4660
:100AB00002B080BD80B582B000AF7860C046BD4650
:100AC00002B080BD80B582B000AF7860C046BD4640
:100AD00002B080BD80B584B000AF786039607B68BB
:100AE0001B68FB607B682B4A934203D07B682A4AD1
:100AF000934208D1FB6870229343FB603B685B68BC
:100B0000FA681343FB607B68224A93420FD07B68EC
:100B1000214A93420BD07B68204A934207D07B68DE
:100B20001F4A934203D07B681E4A934208D1FB6858
:100B30001D4A1340FB603B68DB68FA681343FB60A7
:100B4000FB68802293431A003B685B691343FB6098
:100B50007B68FA681A603B689A687B68DA623B686F
:100B60001A687B689A627B680A4A934207D07B685E
:100B70000B4A934203D07B680A4A934203D13B68F5
:100B80001A697B681A637B6801225A61C046BD46B8
:100B900004B080BD002C0140000400400020004053
:100BA0000044014000480140FFFCFFFF80B582B0D7
:100BB00000AF7860C046BD4602B080BD80B582B04F
:100BC00000AF7860C046BD4602B080BD80B582B03F
:100BD00000AF78607B68002B01D1012344E07B6883
:100BE0005B6F002B07D17B687022002199547B68D2
:100BF0001800FFF737FD7B6824225A677B681B6863
:100C00001A687B681B6801218A431A607B68180098
:100C100000F0D6F90300012B01D1012324E07B6809
:100C20005B6A002B03D07B68180000F039FB7B68FF
:100C30001B685A687B681B680D490A405A607B68CC
:100C40001B689A687B681B6808218A439A607B68E6
:100C50001B681A687B681B6801210A431A607B685D
:100C6000180000F0D1FB03001800BD4602B080BDA3
:100C7000FFF7FFFF80B584B000AFF860B960BB1D1F
:100C80001A80FB685B6F202B58D1BB68002B03D008
:100C9000BB1D1B88002B01D1012350E0FB689A6823
:100CA00080235B019A4209D1FB681B69002B05D1A7
:100CB000BB680122134001D0012340E0FB68702291
:100CC0009B5C012B01D1022339E0FB6870220121DA
:100CD0009954FB68BA68DA64FB68BA1D502112881F
:100CE0005A52FB68BA1D522112885A52FB680022E0
:100CF0005A66FB680022DA67FB6821225A67FB68A4
:100D00009A6880235B019A4207D1FB681B69002B1C
:100D100003D1FB680C4A5A6602E0FB680B4A5A662C
:100D2000FB68702200219954FB681B681A68FB68F5
:100D30001B6880210A431A60002300E00223180088
:100D4000BD4604B080BDC04669160008FB1500080A
:100D500080B588B000AF78607B681B68DB69FB6199
:100D60007B681B681B68BB617B681B689B687B6139
:100D7000FB69894A13403B613B69002B12D1FB6937
:100D8000202213400ED0BB69202213400AD07B687A
:100D90001B6E002B00D1F6E07B681B6E7A6810009A
:100DA0009847F0E03B69002B00D1CDE07B69012240
:100DB000134005D1BA6990235B00134000D1C3E012
:100DC000FB69012213400ED0BA6980235B001340F7
:100DD00009D07B681B6801221A627B68DB6F0122E5
:100DE0001A437B68DA67FB69022213400DD07B69E6
:100DF0000122134009D07B681B6802221A627B68BB
:100E0000DB6F04221A437B68DA67FB690422134014
:100E10000DD07B690122134009D07B681B68042236
:100E20001A627B68DB6F02221A437B68DA67FB6910
:100E30000822134011D0BB692022134003D17B69E3
:100E40000122134009D07B681B6808221A627B6864
:100E5000DB6F08221A437B68DA67FA6980231B017B
:100E600013400FD0BA698023DB0413400AD07B689B
:100E70001B68802212011A627B68DB6F20221A43F2
:100E80007B68DA677B68DB6F002B00D17DE0FB6954
:100E9000202213400CD0BB692022134008D07B686D
:100EA0001B6E002B04D07B681B6E7A68100098477D
:100EB0007B68DB6FFB607B681B689B68402213408C
:100EC000402B03D0FB682822134033D07B681800E6
:100ED00000F05CFB7B681B689B6840221340402B42
:100EE00023D17B681B689A687B681B6840218A4312
:100EF0009A607B68DB6E002B12D07B68DB6E274A22
:100F00005A637B68DB6E180001F04CFB031E19D09E
:100F10007B68DB6E5A6B7B68DB6E1800904711E0D4
:100F20007B68180000F044F80CE07B68180000F0C3
:100F30003FF807E07B68180000F03AF87B68002271
:100F4000DA6722E0C04620E0FB69802213400DD022
:100F5000BB698022134009D07B685B6E002B16D0E2
:100F60007B685B6E7A681000984710E0FB6940224E
:100F700013400DD0BB694022134009D07B68180094
:100F800000F0AEFB04E0C04602E0C04600E0C04610
:100F9000BD4608B080BDC0460F080000CD15000852
:100FA00080B582B000AF7860C046BD4602B080BD5B
:100FB00080B582B000AF7860C046BD4602B080BD4B
:100FC00080B588B000AF78600023BB611723FB18A1
:100FD00000221A707B689A687B681B691A437B68D9
:100FE0005B691A437B68DB6913433B617B681B6861
:100FF0001B68A54A134019007B681B683A690A43BD
:101000001A607B681B685B68A04A134019007B6804
:10101000DA687B681B680A435A607B689B693B619E
:101020007B681B6A3A6913433B617B681B689B685A
:10103000974A134019007B681B683A690A439A6013
:10104000944B1B6B03221340032B0DD01BD8022B98
:1010500014D018D8002B02D0012B0AD013E01F2384
:10106000FB1800221A7012E01F23FB1802221A70CC
:101070000DE01F23FB1804221A7008E01F23FB1841
:1010800008221A7003E01F23FB1810221A707B68D5
:10109000DA6980231B029A4200D07EE01F23FB18EE
:1010A0001B78082B3FD04EDC042B28D04BDC002BC8
:1010B00002D0022B14D046E000F082FF0300FB6058
:1010C000FB685A007B685B685B08D2187B685B68CA
:1010D00019001000FEF7F4FF03009BB2BB6137E07C
:1010E0007B685B685B086C4A9A187B685B681900D0
:1010F0001000FEF7E5FF03009BB2BB6128E000F0A3
:10110000F1FE0300FB60FB685A007B685B685B08CC
:10111000D2187B685B6819001000FEF7D1FF03004E
:101120009BB2BB6114E07B685B685B088022520263
:101130009A187B685B6819001000FEF7C1FF030076
:101140009BB2BB6104E01723FB1801221A70C04652
:10115000BB690F2B1CD9BA6980235B029A4217D254
:10116000BB699AB20A203B180F218A431A80BB69D7
:101170005B089BB20722134099B23B183A181288B9
:101180000A431A807B681B683A181288DA606DE09F
:101190001723FB1801221A7068E01F23FB181B7825
:1011A000082B3DD04CDC042B27D049DC002B02D08F
:1011B000022B13D044E000F003FF0300FB607B68C8
:1011C0005B685A08FB68D2187B685B6819001000DE
:1011D000FEF776FF03009BB2BB6136E07B685B687D
:1011E0005B082E4A9A187B685B6819001000FEF7AE
:1011F00067FF03009BB2BB6127E000F073FE0300B2
:10120000FB607B685B685A08FB68D2187B685B6888
:1012100019001000FEF754FF03009BB2BB6114E0FD
:101220007B685B685B08802212029A187B685B68A7
:1012300019001000FEF744FF03009BB2BB6104E0FD
:101240001723FB1801221A70C046BB690F2B09D95E
:10125000BA6980235B029A4204D27B681B68BA6930
:10126000DA6003E01723FB1801221A707B68002262
:101270001A667B6800225A661723FB181B78180031
:10128000BD4608B080BDC046F369FFFFFFCFFFFF3A
:10129000FFF4FFFF001002400024F40000127A0067
:1012A00080B582B000AF78607B685B6A0122134032
:1012B0000BD07B681B685B684A4A134019007B6847
:1012C0009A6A7B681B680A435A607B685B6A0222E1
:1012D00013400BD07B681B685B68434A13401900BE
:1012E0007B68DA6A7B681B680A435A607B685B6AC2
:1012F000042213400BD07B681B685B683B4A134099
:1013000019007B681A6B7B681B680A435A607B680C
:101310005B6A082213400BD07B681B685B68344A09
:10132000134019007B685A6B7B681B680A435A603C
:101330007B685B6A102213400BD07B681B689B683C
:101340002C4A134019007B689A6B7B681B680A4320
:101350009A607B685B6A202213400BD07B681B6815
:101360009B68254A134019007B68DA6B7B681B6811
:101370000A439A607B685B6A402213401DD07B68F9
:101380001B685B681D4A134019007B681A6C7B68F8
:101390001B680A435A607B681A6C80235B039A427D
:1013A0000BD17B681B685B68154A134019007B688A
:1013B0005A6C7B681B680A435A607B685B6A8022B0
:1013C00013400BD07B681B685B680E4A1340190002
:1013D0007B689A6C7B681B680A435A60C046BD46AE
:1013E00002B080BDFFFFFDFFFFFFFEFFFFFFFBFF21
:1013F000FF7FFFFFFFEFFFFFFFDFFFFFFFFFEFFFBD
:10140000FFFF9FFFFFFFF7FF80B586B002AF786058
:101410007B680022DA6700F011FF0300FB607B6845
:101420001B681B6808221340082B0CD1FB68802224
:1014300091037868154A0092002200F029F8031EF3
:1014400001D003231EE07B681B681B680422134045
:10145000042B0CD1FB688022D10378680B4A0092E0
:10146000002200F015F8031E01D003230AE07B6878
:1014700020225A677B6820229A677B6870220021AD
:10148000995400231800BD4604B080BDFFFFFF0142
:1014900080B584B000AFF860B9603B60FB1D1A7086
:1014A0005DE0BB6901335AD000F0C8FE02003B6822
:1014B000D31ABA699A4202D3BB69002B1BD1FB68CD
:1014C0001B681A68FB681B682F490A401A60FB6892
:1014D0001B689A68FB681B6801218A439A60FB6855
:1014E00020225A67FB6820229A67FB68702200213D
:1014F0009954032343E0FB681B681B6804221340D4
:101500002DD0FB681B68DA6980231B011A408023F9
:101510001B019A4223D1FB681B68802212011A62C8
:10152000FB681B681A68FB681B6817490A401A6049
:10153000FB681B689A68FB681B6801218A439A60F4
:10154000FB6820225A67FB6820229A67FB682022EA
:10155000DA67FB6870220021995403230FE0FB68CF
:101560001B68DB69BA681340BA68D31A5A42534100
:10157000DBB21A00FB1D1B789A4292D000231800A0
:10158000BD4604B080BDC0465FFEFFFF80B582B09F
:1015900000AF78607B681B681A687B681B680A4923
:1015A0000A401A607B681B689A687B681B68012187
:1015B0008A439A607B6820229A677B6800221A66B9
:1015C000C046BD4602B080BDDFFEFFFF80B584B0DF
:1015D00000AF78607B685B6AFB60FB685A22002181
:1015E0009952FB68522200219952FB681800FFF7BC
:1015F000DFFCC046BD4604B080BD80B582B000AF00
:1016000078607B685B6F212B2AD17B6852229B5AC2
:101610009BB2002B10D17B681B681A687B681B6823
:1016200080218A431A607B681B681A687B681B6884
:1016300040210A431A6013E07B68DB6C1A787B68F0
:101640001B681A857B68DB6C5A1C7B68DA647B68D4
:1016500052229B5A9BB2013B99B27B68522299520B
:10166000C046BD4602B080BD80B584B000AF786092
:101670007B685B6F212B2FD17B6852229B5A9BB2D8
:10168000002B10D17B681B681A687B681B6880215F
:101690008A431A607B681B681A687B681B68402154
:1016A0000A431A6018E07B68DB6CFB60FB681A88F1
:1016B0007B681B68D205D20D92B21A857B68DB6C01
:1016C0009A1C7B68DA647B6852229B5A9BB2013B6E
:1016D00099B27B6852229952C046BD4604B080BD83
:1016E00080B582B000AF78607B681B681A687B6841
:1016F0001B6840218A431A607B6820225A677B68F6
:1017000000225A667B681800FFF74AFCC046BD46B7
:1017100002B080BD80B588B000AF78607B68002BD8
:1017200001D1012301E37B681B680122134000D132
:101730008DE0C34B5B680C221340042B0ED0C04BD2
:101740005B680C221340082B16D1BD4B5A688023CE
:101750005B021A4080235B029A420DD1B84B1A6893
:1017600080239B02134000D170E07B685B68002BF4
:1017700000D06BE00123D8E27B685B68012B07D1C6
:10178000AF4B1A68AE4B802149020A431A602FE022
:101790007B685B68002B0CD1A94B1A68A84BA94940
:1017A0000A401A60A64B1A68A54BA7490A401A605E
:1017B0001EE07B685B68052B0ED1A14B1A68A04B1D
:1017C0008021C9020A431A609D4B1A689C4B8021F4
:1017D00049020A431A600BE0994B1A68984B9949E1
:1017E0000A401A60964B1A68954B97490A401A604E
:1017F0007B685B68002B14D000F020FD0300BB6108
:1018000008E000F01BFD0200BB69D31A642B01D96C
:1018100003238AE28A4B1A6880239B021340F0D08C
:1018200015E000F00BFD0300BB6108E000F006FDD1
:101830000200BB69D31A642B01D9032375E2804BE4
:101840001A6880239B021340F0D100E0C0467B68F9
:101850001B680222134000D169E0794B5B680C22BF
:1018600013400BD0764B5B680C221340082B1CD125
:10187000734B5A6880235B02134016D1704B1B6870
:101880000222134005D07B68DB68012B01D00123C5
:101890004BE26B4B1B68F822934319007B681B6972
:1018A000DA00674B0A431A6041E07B68DB68002B73
:1018B00024D0634B1A68624B01210A431A6000F07E
:1018C000BDFC0300BB6108E000F0B8FC0200BB698E
:1018D000D31A022B01D9032327E2594B1B6802229A
:1018E0001340F1D0564B1B68F822934319007B68D4
:1018F0001B69DA00524B0A431A6018E0504B1A6811
:101900004F4B01218A431A6000F098FC0300BB6131
:1019100008E000F093FC0200BB69D31A022B01D946
:10192000032302E2464B1B6802221340F1D17B687D
:101930001B680822134036D07B68DB69002B19D066
:101940003F4B5A6A3E4B01210A435A6200F076FC33
:101950000300BB6108E000F071FC0200BB69D31A10
:10196000022B01D90323E0E1354B5B6A02221340CD
:10197000F1D018E0324B5A6A314B01218A435A6246
:1019800000F05CFC0300BB6108E000F057FC0200C3
:10199000BB69D31A022B01D90323C6E1284B5B6A2A
:1019A00002221340F1D17B681B680422134000D14E
:1019B000B4E01F203B1800221A70214BDA69802303
:1019C0005B05134010D11E4BDA691D4B8021490580
:1019D0000A43DA611A4BDA6980235B051340FB6026
:1019E000FB683B1801221A70184B1A6880235B00B1
:1019F00013401AD1154B1A68144B802149000A4331
:101A00001A6000F01BFC0300BB6108E000F016FC4C
:101A10000200BB69D31A642B01D9032385E10B4B68
:101A20001A6880235B001340F0D07B689B68012B11
:101A30000ED1034B1A6A024B01210A431A6235E0A8
:101A400000100240FFFFFEFFFFFFFBFF00700040A1
:101A50007B689B68002B0CD1B64B1A6AB54B0121F1
:101A60008A431A62B34B1A6AB24B04218A431A6240
:101A70001CE07B689B68052B0CD1AE4B1A6AAD4B02
:101A800004210A431A62AB4B1A6AAA4B01210A438A
:101A90001A620BE0A74B1A6AA64B01218A431A620D
:101AA000A44B1A6AA34B04218A431A627B689B6881
:101AB000002B14D000F0C2FB0300BB6109E000F072
:101AC000BDFB0200BB69D31A9B4A934201D9032391
:101AD0002BE1984B1B6A02221340F0D013E000F078
:101AE000ADFB0300BB6109E000F0A8FB0200BB698D
:101AF000D31A914A934201D9032316E18D4B1B6AF5
:101B000002221340F0D11F23FB181B78012B05D1B3
:101B1000884BDA69874B89490A40DA617B681B6820
:101B20001022134063D07B685B69012B2AD1814B63
:101B30005A6B804B04210A435A637E4B5A6B7D4B90
:101B400001210A435A6300F079FB0300BB6108E0FE
:101B500000F074FB0200BB69D31A022B01D90323E6
:101B6000E3E0744B5B6B02221340F1D0714B5B6B73
:101B7000F822934319007B689B69DA006D4B0A4396
:101B80005A6334E07B685B69053311D1694B5A6B4A
:101B9000684B04218A435A63664B5B6BF82293437C
:101BA00019007B689B69DA00624B0A435A631EE0A6
:101BB000604B5A6B5F4B04210A435A635D4B5A6B6F
:101BC0005C4B01218A435A6300F038FB0300BB6180
:101BD00008E000F033FB0200BB69D31A022B01D9E5
:101BE0000323A2E0534B5B6B02221340F1D17B68CD
:101BF0001B6A002B00D197E04E4B5B680C22134010
:101C0000082B00D16BE07B681B6A022B4CD1494B3F
:101C10001A68484B4A490A401A6000F00FFB03005B
:101C2000BB6108E000F00AFB0200BB69D31A022B7B
:101C300001D9032379E03F4B1A6880239B041340AA
:101C4000F0D13C4BDB6A0F22934319007B68DA6AC0
:101C5000384B0A43DA62374B5B683A4A1340190043
:101C60007B689A6A7B685B6A1A43324B0A435A6004
:101C7000304B1A682F4B802149040A431A6000F048
:101C8000DDFA0300BB6108E000F0D8FA0200BB698E
:101C9000D31A022B01D9032347E0264B1A6880236D
:101CA0009B041340F0D03FE0224B1A68214B24499B
:101CB0000A401A6000F0C2FA0300BB6108E000F0BD
:101CC000BDFA0200BB69D31A022B01D903232CE011
:101CD000184B1A6880239B041340F0D124E07B68E2
:101CE0001B6A012B01D101231FE0124B5B687B6152
:101CF000104BDB6A3B617A6980235B021A407B6888
:101D00005B6A9A420ED13B690F221A407B68DB6AFC
:101D10009A4207D17A69F0239B031A407B689B6A39
:101D20009A4201D0012300E000231800BD4608B00C
:101D300080BDC0460010024088130000FFFFFFEF87
:101D4000FFFFFFFEFFFFC2FF80B584B000AF7860E9
:101D500039607B68002B01D10123B3E05B4B1B682A
:101D6000012213403A689A4211D9584B1B6801224C
:101D700093431900554B3A680A431A60534B1B684A
:101D8000012213403A689A4201D001239AE07B680D
:101D90001B680222134015D07B681B680422134085
:101DA00006D04B4B5A684A4BE021C9000A435A609F
:101DB000474B5B68F022934319007B689A68444B59
:101DC0000A435A607B681B680122134040D07B683D
:101DD0005B68012B07D13E4B1A6880239B0213409E
:101DE00014D101236EE07B685B68022B07D1384B6E
:101DF0001A6880239B04134008D1012362E0344B0E
:101E00001B680222134001D101235BE0304B5B6869
:101E10000322934319007B685A682D4B0A435A608A
:101E200000F00CFA0300FB6009E000F007FA020082
:101E3000FB68D31A274A934201D9032342E0244B7B
:101E40005B680C221A407B685B689B009A42ECD16D
:101E50001E4B1B68012213403A689A4211D21B4B59
:101E60001B68012293431900184B3A680A431A6011
:101E7000164B1B68012213403A689A4201D0012395
:101E800020E07B681B680422134009D0104B5B687C
:101E9000114A134019007B68DA680D4B0A435A60F7
:101EA00000F020F801000A4B5B681B090F22134069
:101EB0000A4AD35C0A00DA40094B1A60032000F09A
:101EC00077F900231800BD4604B080BD0020024011
:101ED0000010024088130000FFF8FFFFA02900084F
:101EE0000800002090B58FB000AF1423FB182B4AD8
:101EF00013CA13C312681A603B1D294A13CA13C3BD
:101F000012681A600023FB620023BB6200237B631C
:101F100000237B6200233B63224B5B68FB62FB6A0E
:101F20000C221340042B02D0082B03D02DE01E4BB3
:101F30003B632DE0FB6A9B0C0F2213401422BA185E
:101F4000D35C7B62174BDB6A0F2213403A1DD35CD4
:101F5000BB62FA6A80235B02134009D0B96A124857
:101F6000FEF7AEF803001A007B6A53437B6309E077
:101F7000796A0A005201521A93019B1ADB005B181E
:101F80001B027B637B6B3B6302E0074B3B63C046FA
:101F90003B6B1800BD460FB090BDC04670290008CD
:101FA000802900080010024000127A0080B500AFBE
:101FB000024B1B681800BD4680BDC04608000020CB
:101FC00080B500AFFFF7F2FF0100064B5B681B0A0C
:101FD00007221340044AD35CD9400B001800BD46C9
:101FE00080BDC04600100240B029000880B586B010
:101FF00000AF786000233B610023FB607B681A68B8
:1020000080235B02134000D18EE017203B18002292
:102010001A70574BDA6980235B05134010D1544B7B
:10202000DA69534B802149050A43DA61504BDA697A
:1020300080235B051340BB60BB683B1801221A700C
:102040004C4B1A6880235B0013401AD1494B1A6825
:10205000484B802149000A431A6000F0EFF8030062
:102060003B6108E000F0EAF802003B69D31A642BF8
:1020700001D9032377E03F4B1A6880235B001340AC
:10208000F0D03B4B1A6AC0239B001340FB60FB68F7
:10209000002B34D07B685A68C0239B001340FA6839
:1020A0009A422CD0324B1B6A334A1340FB60304BB0
:1020B0001A6A2F4B802149020A431A622C4B1A6A72
:1020C0002B4B2E490A401A62294BFA681A62FB68A8
:1020D0000122134013D000F0B1F803003B6109E086
:1020E00000F0ACF802003B69D31A254A934201D9AB
:1020F000032338E01E4B1B6A02221340F0D01C4B16
:102100001B6A1D4A134019007B685A68184B0A4322
:102110001A621723FB181B78012B05D1144BDA69BF
:10212000134B18490A40DA617B681B68012213408F
:1021300009D00F4B1B6B0322934319007B689A68ED
:102140000B4B0A431A637B681B682022134009D09B
:10215000074B1B6B1022934319007B68DA68044B12
:102160000A431A6300231800BD4606B080BDC0466E
:102170000010024000700040FFFCFFFFFFFFFEFF69
:1021800088130000FFFFFFEF80B500AF074B1A6810
:10219000064B10210A431A60032000F009F8FEF7ED
:1021A000F1FA00231800BD4680BDC0460020024061
:1021B00090B583B000AF7860144B1C68144B1B784B
:1021C0001900FA239800FDF77BFF03001900200097
:1021D000FDF776FF0300180000F0FBFA031E01D0A4
:1021E00001230FE07B68032B0BD8796801235B4246
:1021F0000022180000F0C8FA064B7A681A60002323
:1022000000E001231800BD4603B090BD0800002087
:10221000040000200000002080B500AF054B1B78B3
:102220001A00054B1B68D218034B1A60C046BD4606
:1022300080BDC04604000020C800002080B500AF6B
:10224000024B1B681800BD4680BDC046C800002078
:1022500080B586B000AF7860396000237B614FE1C4
:102260003B681B6801217A6991400A001340FB60BA
:10227000FB68002B00D140E13B685B68022B03D078
:102280003B685B68122B23D17B69DA087B680832D4
:102290009200D3583B617B69072213409B000F22B9
:1022A0009A401300DA433B6913403B613B681A696B
:1022B0007B6907210B409B009A4013003A69134346
:1022C0003B617B69DA087B68083292003969D1503A
:1022D0007B681B683B617B695B0003229A401300AB
:1022E000DA433B6913403B613B685B6803221A4059
:1022F0007B695B009A4013003A6913433B617B683A
:102300003A691A603B685B68012B0BD03B685B68DD
:10231000022B07D03B685B68112B03D03B685B68DE
:10232000122B30D17B689B683B617B695B00032289
:102330009A401300DA433B6913403B613B68DA681B
:102340007B695B009A4013003A6913433B617B68E9
:102350003A699A607B685B683B6101227B699A40BD
:102360001300DA433B6913403B613B685B681B0920
:1023700001221A407B699A4013003A6913433B617A
:102380007B683A695A607B68DB683B617B695B000C
:1023900003229A401300DA433B6913403B613B68D8
:1023A0009A687B695B009A4013003A6913433B616A
:1023B0007B683A69DA603B685A6880235B051340A2
:1023C00000D19AE0544B9A69534B01210A439A6118
:1023D000514B9B6901221340BB60BB684F4A7B692C
:1023E0009B0802339B009B583B617B69032213408F
:1023F0009B000F229A401300DA433B6913403B6174
:102400007A689023DB059A4213D07B68444A934252
:102410000DD07B68434A934207D07B68424A93427F
:1024200001D1032306E0052304E0022302E0012397
:1024300000E000237A6903210A40920093403A6940
:1024400013433B6135497B699B0802339B003A6922
:102450005A50364B1B683B61FB68DA433B691340BB
:102460003B613B685A6880235B02134003D03A69A2
:10247000FB6813433B612D4B3A691A602B4B5B6839
:102480003B61FB68DA433B6913403B613B685A6838
:1024900080239B02134003D03A69FB6813433B61DE
:1024A000224B3A695A60214B9B683B61FB68DA43D7
:1024B0003B6913403B613B685A6880235B031340D0
:1024C00003D03A69FB6813433B61184B3A699A6041
:1024D000164BDB683B61FB68DA433B6913403B61A9
:1024E0003B685A6880239B03134003D03A69FB681A
:1024F00013433B610D4B3A69DA607B6901337B61C1
:102500003B681A687B69DA40131E00D0A8E6C04613
:10251000C046BD4606B080BD00100240000001402C
:102520000004004800080048000C00480004014076
:1025300080B582B000AF786008001100BB1C021C9F
:102540001A807B1C0A1C1A707B1C1B78002B04D081
:10255000BB1C1A887B689A6103E0BB1C1A887B68E5
:102560009A62C046BD4602B080BD000080B582B010
:1025700000AF0200BB1D1A80094B5B69BA1D1288AF
:10258000134008D0064BBA1D12885A61BB1D1B8828
:102590001800FDF717FEC046BD4602B080BDC0461C
:1025A0000004014080B584B000AF78600F217B1833
:1025B00000221A707B6821229B5CDBB2022B06D0C2
:1025C0007B6804229A637B1801221A7028E07B68DA
:1025D0001B681A687B681B680E218A431A607B6837
:1025E0001B681A687B681B6801218A431A607B6834
:1025F0001A6C7B68DB6B012191400A005A607B6892
:102600002122012199547B682022002199547B6862
:102610005B6B002B04D07B685B6B7A68100098477B
:102620000F23FB181B781800BD4604B080BD0000C6
:1026300080B582B000AF0200FB1D1A70FB1D1B7835
:102640007F2B09D8FB1D1B781A001F231A40044B4F
:10265000012191400A001A60C046BD4602B080BD0B
:1026600000E100E090B583B000AF02003960FB1DCF
:102670001A70FB1D1B787F2B28D82F4AFB1D1B7857
:102680005BB29B08C0339B009B58FA1D1278110067
:1026900003220A40D200FF2191400A00D2431A408F
:1026A00011003B689B01FF221A40FB1D1B7818009C
:1026B00003230340DB009A401F48FB1D1B785BB2DD
:1026C0009B080A43C0339B001A5031E01B4AFB1D94
:1026D0001B7819000F230B40083B9B0806339B0017
:1026E000D31804331B68FA1D1278110003220A4024
:1026F000D200FF2191400A00D2431A4011003B68EA
:102700009B01FF221A40FB1D1B7818000323034086
:10271000DB009A400948FB1D1B781C000F23234057
:10272000083B9B080A4306339B00C31804331A6016
:10273000C046BD4603B090BD00E100E000ED00E002
:1027400080B582B000AF78607B685A1E80235B043E
:102750009A4201D3012310E00A4B7A68013A5A6089
:1027600001235B4203211800FFF77CFF054B002289
:102770009A60044B07221A6000231800BD4602B07D
:1027800080BDC04610E000E080B584B000AFB96005
:102790007A600F217B18021C1A70BA687B181B78AC
:1027A0005BB211001800FFF75DFFC046BD4604B0E4
:1027B00080BD80B582B000AF0200FB1D1A70FB1D0A
:1027C0001B785BB21800FFF733FFC046BD4602B06E
:1027D00080BD80B582B000AF78607B681800FFF7DD
:1027E000AFFF03001800BD4602B080BD80B500AF4A
:1027F000C046BD4680BD000080B500AF104B114AF9
:102800001A600F4B2F225A600D4B00229A600C4B1E
:10281000FA22D200DA600A4B00221A61084B002229
:102820005A61074B00229A61054B1800FDF7CEFF55
:10283000031E01D0FDF77BFEC046BD4680BDC046ED
:10284000CC0000200048014080B584B000AF786023
:102850007B681B680E4A934215D10E4B9A690D4B4B
:102860008021C9020A439A610A4B9A698023DB02DC
:102870001340FB60FB68002200211620FFF784FF55
:102880001620FFF796FFC046BD4604B080BDC04687
:1028900000480140001002400D4885460D480E4991
:1028A0000E4A002302E0D458C4500433C4188C42AA
:1028B000F9D30B4A0B4C002301E013600432A2420F
:1028C000FBD3FFF793FF00F019F8FDF77FFDFEE75C
:1028D00000100020000000200C000020C02900088B
:1028E0000C0000200C010020FEE703008218934238
:1028F00000D1704719700133F9E7000070B5002668
:102900000C4C0D4D641BA410A64209D1002600F00A
:1029100019F80A4C0A4D641BA410A64205D170BDDB
:10292000B300EB5898470136EEE7B300EB589847F1
:102930000136F2E7B8290008B8290008BC290008C8
:10294000B8290008F8B5C046F8BC08BC9E467047D8
:0C295000F8B5C046F8BC08BC9E467047B5
:10295C006A313835302070776D207374617274650C
:10296C00640D0A0002030405060708090A0B0C0D86
:10297C000E0F10100102030405060708090A0B0CC0
:10298C000D0E0F1030313233343536373839414271
:10299C00434445460000000000000000010203040F
:0C29AC00060708090000000001020304F7
:0429B8007901000899
:0429BC0051010008BD
:0C29C000040000000100000000127A007A
:04000005080028992E
:00000001FF
